:03000000020B4BA5
:0C0B4B00787FE4F6D8FD758156020B920D
:100FCF000000000000000000000000000000000012
:0A0FF7000143000147000251000011
:100FA900759850438E01438E0475D7B475D6FF43A7
:030FB9008E102275
:100FBC0075AC1053ACBF438E0475D7B475D6FF43D4
:030FCC008E102262
:0A10020075D34875D27775AF402210
:0A0EA9008B0B8A0C890D8C0E8D0F47
:100EB300E4FFFEC3EF950FE50E6480F8EE648098BF
:100EC300501BAB0BAA0CA90D8F828E8312090FF551
:0D0ED300993099FDC2990FBF00010E80D625
:010EE00022EF
:0A0DEF008B1D8A1E891F8C208D21A8
:100DF900E4F522F523C3E5239521E5206480F8E590
:100E090022648098501EAB1DAA1EA91F85238285C6
:100E1900228312090FF5AD120FEC0523E52370D5D6
:040E2900052280D14D
:010E2D0022A2
:03000300020F11D8
:100F1100C0E0C0D075D000C007AFD1EF64807006CB
:100F2100F551F552800975510075520075D180D087
:060F310007D0D0D0E03231
:0300A300020EE169
:100EE100C0E0C0D00552E55270020551D39490E59F
:100EF100516480948140147551007552007599AB0D
:100F01003099FDC29975D10053EFFBD0D0D0E032BA
:03002300020BD7F6
:100BD700C0E0C0F0C083C082C0D075D000C000C0E4
:100BE70001C002C003C004C005C006C00730984F4B
:100BF700859943C298AF47EF3395E0FEC3EF94065C
:100C0700EE648094805038054774482FF8A643AFA8
:100C170047EF3395E0FEC3EF9406EE64809480407F
:100C27001E7527007528007529407B007A007948D2
:100C3700120E2E7B007A007940120DA6754700D060
:100C470007D006D005D004D003D002D001D000D001
:0A0C5700D0D082D083D0F0D0E0327C
:0300930002100C4C
:01100C0032B1
:0D0FDF00E4F5C7F5C5F5C675C380F5C4225D
:100F740075C78075F50C75C5018FC4EEFF8FC375F9
:0B0F8400C65A75C6A500AFC2020FDF01
:040F56008E0B8F0C63
:100F5A00E4F59275910175DE2F75BC8043BC4000A3
:090F6A0000E5BC30E5FB53BCDFDF
:010F7300225B
:0A0FEC0000007F2E7E71DEFEDFFCA8
:010FF60022D8
:100F8F00754E00754F00755000D2AFD2ACD288D2DB
:0A0F9F00A8120FA9120FBC021002E5
:040D13008E0B8F0CA8
:100D1700780D7C007D007BFF7A0F79CF7E007F08FE
:100D27001208D078157C007D007BFF7A0F79D77E7B
:100D3700007F081208D0850C0F7B007A00790D7DA3
:100D4700087C00120DEF120FEC7B007A0079157DFD
:060D5700087C00020DEF14
:100A8E008B088A09890A1208F6FF24FE6022146078
:100A9E003C24FE606824046003020B4A8F449000DD
:100AAE000112090FF54590000212090FF54680401C
:100ABE00AB08AA09A90A1208F6F5447F017E0012B6
:100ACE000F748F457F02120F748F468023AB08AAD6
:100ADE0009A90A90000112090FFF7E00120F56ABF2
:100AEE0008AA09A90A1208F6F54485BD4585BE4631
:100AFE00750E00750F0075103A7B00802BAB08AA9F
:100B0E0009A90A90000112090FFF7E00120D13AB06
:100B1E0008AA09A90A1208F6F544E4F545F546F5C2
:100B2E000E750F0075103AFB7A007944120C617B3A
:0D0B3E00007A00793A7D067C00120EA92293
:040F3700AD07AC0650
:100F3B00E4FBFAC3EB9DEC6480F8EA648098500AFA
:0A0F4B00120FEC0BBB00010A80E955
:010F55002279
:060C61008B0B8A0C890DCB
:050C6700E4F511F51297
:100C6C00120CC6EEFF8F13AB0EAA0FA910851282C1
:100C7C00851183E51312093C8512828511831209B3
:100C8C000FFFAB0BAA0CA90D8512828511831209DB
:100C9C000F6FFFAB0EE5102512F9E50F3511FA9029
:060CAC000003EF12093CF9
:100CB2000512E51270020511C39403E511648094D4
:030CC2008040A7C8
:010CC500220C
:060E2E008B248A258926B1
:100E3400E4FFFEAB24E5262FF9E5253EFA900003F6
:100E440012090FFDAA25A9268F828E8312090F6D20
:100E5400AB27AA28A9298F828E8312093C0FBF00D1
:080E6400010EEF64034E70CB98
:010E6C002263
:0F0D5D00E550454F7009F54E754F0075502F2228
:100D6C00854E37854F38855039AB37AA38A939901D
:100D7C0000051209C3E94A60088B378A3889398023
:100D8C00E87B007A00792FC003C002C001AB37AA00
:090D9C0038A9399000051209F391
:010DA500222B
:060DA6008B248A2589263A
:100DAC00E4FFFEAB24AA25A9268F828E8312090F9D
:100DBC00FD74272FF8A6050FBF00010EEF64034E3C
:100DCC0070E1752C00752D00752E00E4F52AF52BBD
:100DDC00782F7C00FDFB7A007927FE7F081208D063
:030DEC00020D5D98
:100E6D00120F8FAB4EAA4FA950AE02AF01EF4E60DD
:100E7D00F290000312095E45F070E8120A8EAB4E37
:100E8D00AA4FA950900003E475F001120996900045
:0C0E9D00051209C38B4E8A4F895080C794
:100B5700020E6DE493A3F8E493A34003F68001F239
:100B670008DFF48029E493A3F85407240CC8C3339F
:100B7700C4540F4420C8834004F456800146F6DF6E
:100B8700E4800B0102040810204080900FF7E47EF8
:100B9700019360BCA3FF543F30E509541FFEE49363
:100BA700A360010ECF54C025E060A840B8E493A32A
:100BB700FAE493A3F8E493A3C8C582C8CAC583CA55
:100BC700F0A3C8C582C8CAC583CADFE9DEE780BE0D
:0110010000EE
:10080000E709F608DFFA8046E709F208DFFA803EDA
:1008100088828C83E709F0A3DFFA8032E309F608C7
:10082000DFFA8078E309F208DFFA807088828C832F
:10083000E309F0A3DFFA806489828A83E0A3F608E3
:10084000DFFA805889828A83E0A3F208DFFA804CBD
:1008500080D280FA80C680D4806980F28033801094
:1008600080A680EA809A80A880DA80E280CA8033FD
:1008700089828A83ECFAE493A3C8C582C8CCC58375
:10088000CCF0A3C8C582C8CCC583CCDFE9DEE78045
:100890000D89828A83E493A3F608DFF9ECFAA9F0C4
:1008A000EDFB2289828A83ECFAE0A3C8C582C8CC1A
:1008B000C583CCF0A3C8C582C8CCC583CCDFEADE33
:1008C000E880DB89828A83E493A3F208DFF980CC95
:1008D00088F0EF60010E4E60C388F0ED2402B4048E
:1008E0000050B9F582EB2402B4040050AF23234535
:0608F00082239008507302
:1008F600BB010689828A83E0225002E722BBFE0200
:09090600E32289828A83E4932232
:10090F00BB010CE58229F582E5833AF583E022509D
:10091F0006E92582F8E622BBFE06E92582F8E222E7
:0D092F00E58229F582E5833AF583E4932201
:10093C00F8BB010DE58229F582E5833AF583E8F0F1
:10094C00225006E92582C8F622BBFE05E92582C89D
:02095C00F22285
:10095E00BB0110E58229F582E5833AF583E0F5F0D7
:10096E00A3E0225009E92582F886F008E622BBFEB4
:10097E000AE92582F8E2F5F008E222E5832AF583FA
:08098E00E993F5F0A3E99322BF
:10099600F8BB0111E58229F582E5833AF583E8F093
:1009A600E5F0A3F0225009E92582C8F608A6F02250
:0D09B600BBFE09E92582C8F2E5F008F22237
:1009C300BB010DE58229F582E5833AF583020A5ED0
:1009D3005007E92582F8020A4CBBFE07E92582F895
:1009E300020A70E58229F582E5833AF583020A82D9
:1009F300BB0120E58229F582E5833AF583D0F0D067
:100A0300E0F8D0E0F9D0E0FAD0E0FBE8C0E0C0F0D5
:100A1300020A675018E92582F8D083D082D0E0F922
:100A2300D0E0FAD0E0FBC082C083020A55BBFE18B7
:100A3300E92582F8D083D082D0E0F9D0E0FAD0E083
:090A4300FBC082C083020A792283
:100CC600AC53AD54AE55AF567810EC4D4E4F700444
:100CD6007CA57DA5C3EC13FCED13FDEE13FEEF130F
:100CE600FF5010EC64CCFCED644CFDEE644EFEEF60
:100CF60064CEFFD8DF8C538D548E558F56EE547FBD
:0D0D0600FE228E538F5474A5F555F556222C
:090A4C00E6FB08E6FA08E6F922CF
:090A5500EBF608EAF608E9F622C6
:090A5E00E0FBA3E0FAA3E0F92299
:090A6700EBF0A3EAF0A3E9F02290
:090A7000E2FB08E2FA08E2F922B7
:090A7900EBF208EAF208E9F222AE
:0C0A8200E493FB740193FA740293F922D0
:00000001FF
