:030000000212B831
:0C12B800787FE4F6D8FD75815B0212FF20
:101A200000000000000000000000000000000000B6
:0400060002510000A3
:10170F00752603E4F525FB7A0079257F03120D9EDC
:10171F00752604E4F525FB7A0079257F03120D9ECB
:10172F00752603E4F525FB7A0079257F05120D9EBA
:10173F0075260CE4F525FB7A0079257F05120D9EA1
:10174F0075260FE4F525FB7A0079257F01020D9EA2
:10144500752540752601752A007529C2752801750F
:101455002700752C01E4F52D752E01F52FF530FBD0
:101465007A0079257F011200A6752540752603753A
:101475002A007529C2752801752700752C01752E5E
:1014850001E4F52F753002FB7A0079257F03120000
:10149500A6752540752604752A007529C27528018B
:1014A500752700752C01752E01E4F52F753004FBA9
:0914B5007A0079257F040200A6EB
:101A0E00752701752501E4F526FB7A007925FF027D
:021A1E001015A1
:10006600E4F525F526752701F528F529752A70F595
:0C0076002BF52CFB7A007925FF02078493
:1019B30075251FE4F52B752C01F526752701752870
:1019C30001F529F52AFB7A00792512113D7F0102E1
:0219D3000046CC
:081838007B007A00793F7D0876
:081840008B288A29892A8D2BCF
:10184800E4F52CF52CE52CC3952B5017AB28AA29C9
:10185800A92A852C82758300120BBFFF121969050E
:031868002C80E2EF
:01186B00225A
:081899008B3A8A3B893C8D3D2E
:1018A100E4F53EF53EE53EC3953D5017AB3AAA3B04
:1018B100A93C853E82758300120BBFFF12191905E1
:0318C1003E80E284
:0118C4002201
:0818C5008B538A5489558D569E
:1018CD00E4F557F557E557C395565017AB53AA5442
:1018DD00A955855782758300120BBFFF121941055B
:0318ED005780E23F
:0118F00022D5
:03000B0002186C6C
:10186C00C0E0C0D075D000C0060552E552AE517034
:10187C0002055114C39428EE6480948A4008755173
:0D188C0000755200C28CD006D0D0D0E032E2
:1013CA00752C00752D3FAB25AA26A927120BA6F569
:0713DA002E7B007A00794D23
:0613E1008B288A29892AED
:1013E700AF2E7E001217A1E4F52FC3E52F940474E6
:1013F700809480504812175FAB2BAA2CA92D852FFC
:1014070082758300EF120BECAB28AA29A92A852F36
:1014170082758300120BBFFFAB2BAA2CA92D852F3A
:1014270082758300120BBF6FFFE52F7C0029F9EC53
:0D1437003AFA900004EF120BEC052F80AD87
:011444002285
:0617F4008B288A29892AD6
:1017FA00E4FFEFC39404748094805031AB28EF7CEB
:10180A0000252AF9EC3529FA900004120BBFFEAA2A
:10181A0029A92A8F82758300120BBF6EAB2BAA2CC3
:0D182A00A92D8F82758300120BEC0F80C575
:01183700228E
:0417AC008E288F29CB
:1017B000782A7C007D007BFF7A1A79207E007F08E2
:1017C000120B8078327C007D007BFF7A1A79287EAC
:1017D000007F08120B8085292C7B007A00792A7DF6
:1017E000081218997F01121A307B007A0079327D35
:0417F000080218993A
:101344008B258A268927752B00752C00752D49124B
:1013540017F4E54924FE601C14602724FE604C2425
:1013640004706285494D854A4E854B4F854C5075B6
:101374002B00804B85494DE4F54EF54FF550F52B88
:10138400803D7F01120046AF4A1215B08E478F4848
:1013940085494D854A4EE547F54F854850752B00E4
:1013A4001213CA121838E4FF020046AF4A7E001234
:1013B40017AC85494D854A4EE4F54FF550F52B128F
:0613C40013CA12183822C2
:10199000754D048F4EE4F54FF550F52B752C007501
:1019A0002D3F8F2EFB1213DD7B007A00793F7D08DF
:0319B000021840DA
:1012040012170F121445121A0E1200661219B3D2D5
:10121400AF7F01121A30D3E50D940074809480409E
:101224001D150DE50D7017D3E50C940074809480A2
:1012340040097B017A007900121344E4F50CD3E5EC
:101244001B9400748094804032151BE51B702CD3D2
:10125400E51A940074809480401EE4F524E524C3C8
:10126400951A501474002524F582E43401F583E0C2
:10127400FF121919052480E5E4F51AD3E522940038
:101284007480948040191522E5227013D3E52194CB
:1012940000748094804005E4FF121990E4F5213035
:1012A400B2030212157FAA121969E4F551F552D25C
:0412B4008C02121581
:10113D00900001120BBFFFE5DE54F04FF5DE90007D
:10114D0002120BBF6401700543BC80800353BC7F4A
:10115D00900003120BBF6401700543DE2080035322
:10116D00DEDF900005120BBF64017004D2AD80026A
:10117D00C2AD900004120BBFFF7E00D394037480A8
:10118D0094805072EF700553B7DFC2BDEF64014E0E
:10119D00700553B7DFD2BDEF64024E700543B72023
:1011AD00C2BDEF64034E700543B720D2BD120BA62E
:1011BD00D3941F74809480503D900006120BBFFF96
:1011CD00D3940174809480502D900007120BBFFEB4
:1011DD00D3940374809480501D43BA80EEC433546D
:1011ED00E0FEEFC433333354804EFF120BA64F9005
:0711FD00FEA8F053BA7F22A7
:0D004600EF6401700443BC802253BC7F2294
:1015B000EFD3940F7480948040057E107F0022E466
:1015C000F5BDF5BEE5BC54F044404FF5BC0000004D
:1015D00000E4FDEDC394FA748094805045E5BC307E
:1015E000E53D53BCDFE5DEAFBD30E50EEFFEACBE42
:1015F000ECFBEEF528EBF52980207528008F29E516
:10160000BEC4540FFBE529C4F8540FC868FFE52891
:10161000C454F048F528EF4BF529AE28AF29220D28
:0616200080B17E0F7FFF88
:0116260022A1
:03002B0002000EC2
:04000E0053BCDF32CE
:0F1A30007DA37C08ED1D70011C144C70F7DFF1D5
:011A3F002284
:03001B000200865A
:03008600B2EE32A5
:0300630002008E0A
:03008E00B2ED329E
:03009B00020096CA
:03009600B2EC3297
:0300A30002009EBA
:03009E00B2EB3290
:10078400AD07EDD394047480948040037F0122ED7F
:100794006003020859C28C900002120BBF640170FE
:1007A40004D2A98002C2A9900001120BBFFED39407
:1007B400037480948040037F0222EEFF7E00700564
:1007C40053B7FDC2B9EF64014E700553B7FDD2B9FA
:1007D400EF64024E700543B702C2B9EF64034E7072
:1007E4000543B702D2B9120BA6FEC39403748094D6
:1007F4008040037F0222E58954CF4EF5899000039F
:10080400120BBFFF7E0064017003538E7FEF4E70A6
:1008140003438E80EF64024E7005438904800353C2
:1008240089FB900004120BBF64017005438F0180A3
:1008340003538FFE900005120C0EE5F0F58C90002A
:1008440005120C0EF58A900007120BBF64017002AA
:10085400D28C7F0022ED64016003020921C28E90D4
:100864000002120BBF64017004D2AB8002C2AB90D1
:100874000001120BBFFED394037480948040037F65
:100884000222EEFF7E00700553B7F7C2BBEF64018E
:100894004E700553B7F7D2BBEF64024E700543B7F1
:1008A40008C2BBEF64034E700543B708D2BB120BFA
:1008B400A6FEC394037480948040037F0222E589DA
:1008C40054CF4EF589900003120BBFFF7E006401E4
:1008D4007003538EBFEF4E7003438E40EF64024E9D
:1008E400700543894080035389BF900004120BBFF5
:1008F40064017005438F028003538FFD900005123D
:100904000C0EE5F0F58D900005120C0EF58B9000A1
:1009140007120BBF64017002D28E7F0022ED6402C5
:10092400707C538EEF900002120BBF64017005437C
:10093400AF04800353AFFB900003120BBFFED394AC
:10094400027480948040037F0222EEFF7E006401E3
:100954007003538EFBEF4E7003438E04EF64024E1C
:100964007005438E088003538EF7900004120BBF6A
:1009740064017005438F048003538FFB90000512BC
:100984000C0EE5F0F5D6900005120C0EF5D790008C
:1009940007120BBF64017003438E107F0022ED64C5
:1009A40003707C53D1F7900002120BBF64017005F1
:1009B40043AF20800353AFDF900003120BBFFED37D
:1009C40094027480948040037F0222EEFF7E0064D0
:1009D40001700353D1FDEF4E700343D102EF640263
:1009E4004E700543D104800353D1FB900004120BD5
:1009F400BF6401700543D101800353D1FE9000050B
:100A0400120C0EE5F0F5D4900005120C0EF5D590FD
:100A14000007120BBF6401700343D1087F0022ED6D
:100A240064046003020AAD53D17F900002120BBF2D
:100A34006401700543AF40800353AFBF90000312BD
:100A44000BBFFD7C00D394027480948040037F022A
:100A540022ED64014C700353D1DF900003120BBFED
:100A6400700343D120900003120BBF64027005434E
:100A7400D140800353D1BF900004120BBF640170B6
:100A84000543D110800353D1EF900005120C0EFDE5
:100A9400ACF0ECF5D2AF058FD3900007120BBF6416
:0C0AA40001700343D1807F00227F0222FA
:0800A6008F318B328A3389345B
:1000AE00EF640160030202AA750801F509F50AF56D
:1000BE000BF50CF50DF50EF535C3E5359480748012
:1000CE009480501174802535F582E43401F583E473
:1000DE00F0053580E4E4F535C3E5359480748094FD
:1000EE0080501174002535F582E43400F583E4F078
:1000FE00053580E4AB32AA33A93490000A120BBF47
:10010E00FD7C00D394037480948040037F0222ED23
:10011E004C700553B7EFC2BCAB32AA33A934900072
:10012E000A120BBF6401700553B7EFD2BC90000AE0
:10013E00120BBFFF7E006402700543B710C2BCEF06
:10014E0064034E700543B710D2BC120BA6FD7C00A3
:10015E00D394C07480948040037F0222120BA6FFBA
:10016E00E598543F4FF598ED64C04C6008EF64403D
:10017E006003020237900002120D387F007E607D10
:10018E00547C00120C828F398E388D378C36E4FFFA
:10019E00FE7D01FCAB39AA38A937A836C3120D145F
:1001AE0040037F0222C3E49539F539E49538F538DA
:1001BE0074019537F537E49536F536AB32AA33A987
:1001CE0034900001120BBFFB7A006401702CC28EBA
:1001DE00538EFE5389BF5389CF438E40AF39AE380D
:1001EE00AD37AC367808120D258F8D85398BC2ABA5
:1001FE005389BF538FFDD28E8069EB64024A7026FD
:10020E00538EEF438E01538EF7438E04AF39AE38C3
:10021E00AD37AC367808120D258FD68539D753AF4A
:10022E00FB438E10803D7F0222AB32AA33A93412DB
:10023E000BA6FF7E007014900008120BBF640170B5
:10024E0005438E20801D538EDF8018EF64804E7024
:10025E0012900008120BBF64017005438780800363
:10026E0053877FAB32AA33A934900009120BBF64B7
:10027E00017004D2AC8002C2AC900007120BBF64B6
:10028E00017004D29C8002C29C90000B120BBF54D2
:10029E00C0FFE5A2543F4FF5A27F0022E531640274
:1002AE00600302041E750F02F510F511F512F51319
:1002BE00F514F515F535C3E53594807480948050AA
:1002CE001174802535F582E43402F583E4F00535AA
:1002DE0080E4E4F535C3E535948074809480501144
:1002EE0074802535F582E43400F583E4F00535801D
:1002FE00E4AB32AA33A934120BA6FF64C06008EF38
:10030E00644060030203E190000A120BBFFD7C0003
:10031E00D394037480948040037F0222ED4C7006C8
:10032E0053B6FE53B5FEAB32AA33A93490000A126F
:10033E000BBF6401700653B6FE43B50190000A125E
:10034E000BBFFF7E006402700643B60153B5FEEF8D
:10035E0064034E700643B60143B501120BA664C08A
:10036E007005439A808003539A7F900002120D38D5
:10037E007F007E607D547C00120C828F398E388D0A
:10038E00378C36E4FFFE7D01FCAB39AA38A937A8BD
:10039E0036C3120D1440037F0222C3E49539F5399A
:1003AE00E49538F53874019537F537E49536F5361A
:1003BE00538EEF538EF7438E04AF39AE38AD37AC54
:1003CE00367808120D258FD68539D753AFFB438E5D
:1003DE001080037F0222AB32AA33A9349000091297
:1003EE000BBF6401700543AF01800353AFFE900055
:1003FE0007120BBF64017005439A108003539AEFE6
:10040E0090000B120BBF5401FFE5BA54FE02077B9E
:10041E00E531640360030205CE751603F517F51872
:10042E00F519F51AF51BF51CF535C3E535948074F1
:10043E00809480501174002535F582E43403F583E1
:10044E00E4F0053580E4E4F535C3E5359480748039
:10045E009480501174002535F582E43401F583E45F
:10046E00F0053580E4AB32AA33A934120BA6FF6433
:10047E00C06008EF6440600302059190000A120B01
:10048E00BFFD7C00D394037480948040037F0222CE
:10049E00ED4C700653EEFE53DFFEAB32AA33A93499
:1004AE0090000A120BBF6401700653EEFE43DF018B
:1004BE0090000A120BBFFF7E006402700643EE012D
:1004CE0053DFFEEF64034E700643EE0143DF01126D
:1004DE000BA664C0700543AC80800353AC7F9000C4
:1004EE0002120D387F007E607D547C00120C828FCC
:1004FE00398E388D378C36E4FFFE7D01FCAB39AA80
:10050E0038A937A836C3120D1440037F0222C3E464
:10051E009539F539E49538F53874019537F537E4A2
:10052E009536F536AB32AA33A934900001120BBFC3
:10053E00FB7A006403701D43AC40AF39AE38AD3763
:10054E00AC367808120D258FD48539D553D1F043AA
:10055E00D10A8032EB64024A7026538EEF53ACBF41
:10056E00538EF7438E04AF39AE38AD37AC367808BC
:10057E00120D258FD68539D753AFFB438E108006CB
:10058E007F02227F0222AB32AA33A93490000912D5
:10059E000BBF6401700543AF08800353AFF79000A3
:1005AE0007120BBF6401700543AC10800353ACEF10
:1005BE0090000B120BBF5402FFE5BA54FD02077BED
:1005CE00E53164046003020781751D03F51EF51FF6
:1005DE00F520F521F522F523F535C3E53594807424
:1005EE00809480501174802535F582E43403F583B0
:1005FE00E4F0053580E4E4F535C3E5359480748088
:10060E009480501174002535F582E43402F583E4AC
:10061E00F0053580E4AB32AA33A934120BA6FF6481
:10062E00C06008EF6440600302074190000A120B9D
:10063E00BFFD7C00D394037480948040037F02221C
:10064E00ED4C700653EEFD53DFFDAB32AA33A934E9
:10065E0090000A120BBF6401700653EEFD43DF02D9
:10066E0090000A120BBFFF7E006402700643EE027A
:10067E0053DFFDEF64034E700643EE0243DF0212BA
:10068E000BA664C07005438480800353847F900062
:10069E0002120D387F007E607D547C00120C828F1A
:1006AE00398E388D378C36E4FFFE7D01FCAB39AACE
:1006BE0038A937A836C3120D1440037F0222C3E4B3
:1006CE009539F539E49538F53874019537F537E4F1
:1006DE009536F536AB32AA33A934900001120BBF12
:1006EE00FB7A006404701D438440AF39AE38AD37D9
:1006FE00AC367808120D258FD28539D353D10F43DE
:10070E00D1A08032EB64024A7026538EEF5384BF21
:10071E00538EF7438E04AF39AE38AD37AC3678080A
:10072E00120D258FD68539D753AFFB438E10800619
:10073E007F02227F0222AB32AA33A9349000091223
:10074E000BBF6401700543AF10800353AFEF9000F1
:10075E0007120BBF6401700543841080035384EFAE
:10076E0090000B120BBF5404FFE5BA54FB4FF5BAC1
:05077E007F00227F0254
:010783002253
:101969007480250AF582E43401F583EFF0050AC392
:10197900E50A9480748094804003E4F50AE50B70CD
:0719890005750B01D2992244
:10002E00120BA6FF600C121969740129F9E43AFA51
:03003E0080EE222F
:0300230002169E24
:10169E00C0E0C083C082C0D075D000C0073098288B
:1016AE00C298E50E7022C3E50C948074809480403D
:1016BE0003750C00AF0C050C74002FF582E434009A
:1016CE00F583E599F0750D0530992BC299E50965FD
:1016DE000A602074802509F582E43401F583E0F573
:1016EE00990509C3E50994807480948040087509B2
:1016FE00008003750B00D007D0D0D082D083D0E00D
:01170E0032A8
:1018F10074802511F582E43402F583EFF00511C3FC
:10190100E5119480748094804003E4F511E5127030
:0819110006751201439A02223F
:1019D500120BA6FF600C1218F1740129F9E43AFA0A
:0319E50080EE226F
:030043000216277B
:10162700C0E0C083C082C0D075D000C007E59A3043
:10163700E029539AFEE5157022C3E5139480748060
:1016470094804003751300AF13051374802FF58240
:10165700E43400F583E59BF0751405E59A30E12C39
:10166700539AFDE5106511602074802510F582E41A
:101677003402F583E0F59B0510C3E5109480748070
:10168700948040087510008003751200D007D0D0F1
:07169700D082D083D0E032C5
:1019190074002518F582E43403F583EFF00518C344
:10192900E5189480748094804003E4F518E51970F3
:081939000675190143AC0222FE
:1019E800120BA6FF600C121919740129F9E43AFACE
:0319F80080EE225C
:03008B000214BE9E
:1014BE00C0E0C083C082C0D075D000C007E5AC5478
:1014CE0001602953ACFEE51C7022C3E51A948074AA
:1014DE008094804003751A00AF1A051A74002FF518
:1014EE0082E43401F583E5ADF0751B05E5AC5402DD
:1014FE00602C53ACFDE5176518602074002517F5B8
:10150E0082E43403F583E0F5AD0517C3E517948047
:10151E007480948040087517008003751900D007F9
:09152E00D0D0D082D083D0E0328D
:101941007480251FF582E43403F583EFF0051FC38E
:10195100E51F9480748094804003E4F51FE52070B6
:081961000675200143840222F7
:1019FB00120BA6FF600C121941740129F9E43AFA93
:031A0B0080EE2248
:030093000215371C
:10153700C0E0C083C082C0D075D000C007E5845426
:101547000160295384FEE5237022C3E5219480744A
:101557008094804003752100AF21052174002FF589
:1015670082E43402F583E585F0752205E5845402AB
:10157700602C5384FDE51E651F60207480251EF5D1
:1015870082E43403F583E0F585051EC3E51E9480E8
:10159700748094804008751E008003752000D00772
:0915A700D0D0D082D083D0E03214
:03000300020016E2
:04001600750001323E
:0300130002001ECA
:04001E007500023235
:0300530002002682
:04002600750003322C
:03005B000200564A
:0400560075000432FB
:0300830002005E1A
:04005E0075000532F2
:10101500EFD394047480948040037F0122EF7061C4
:10102500C289900002120BBF64017004D2A880022D
:10103500C2A8900001120BBFFED394037480948064
:1010450040037F0222EEFD7C00700553B7FEC2B857
:10105500ED64014C700553B7FED2B8ED64024C70D7
:101065000543B701C2B8ED64034C700543B701D21F
:10107500B8120BA664017004D2888002C2887F0072
:1010850022EF64017061C28B900002120BBF6401F4
:101095007004D2AA8002C2AA900001120BBFFED32F
:1010A50094037480948040037F0222EEFD7C0070DF
:1010B5000553B7FBC2BAED64014C700553B7FBD2BB
:1010C500BAED64024C700543B704C2BAED64034C33
:1010D500700543B704D2BA120BA664017004D28A14
:1010E5008002C28A7F0022EF64027015900002120E
:1010F5000BBF64017005438F108003538FEF7F0092
:1011050022EF64037015900002120BBF6401700595
:10111500438F208003538FDF7F0022EF6404701517
:10112500900002120BBF64017005438F408003538A
:081135008FBF7F00227F022220
:100D9E00EFD394077480948040037F0122120BA638
:100DAE00FED394037480948040037F0222EF70443C
:100DBE00EE700B900001120BBFF452935294120B73
:100DCE00A66401700B900001120BBF4293F4529473
:100DDE00120BA6FE6402700A900001120BBF429322
:100DEE004294EE6403700D900001120BBFFEF4529C
:100DFE0093EE4294EF64017046120BA6FE700B90B8
:100E0E000001120BBFF452915292EE6401700B90DE
:100E1E000001120BBF4291F45292120BA6640270A3
:100E2E000A900001120BBF42914292120BA664036C
:100E3E00700D900001120BBFFEF45291EE4292EF34
:100E4E0064027046120BA6FE700B900001120BBFCF
:100E5E00F452955296EE6401700B900001120BBF86
:100E6E004295F45296120BA66402700A900001127B
:100E7E000BBF42954296120BA66403700D900001B3
:100E8E00120BBFFEF45295EE4296EF6403704612BB
:100E9E000BA6FE700B900001120BBFF452B152B2B2
:100EAE00EE6401700B900001120BBF42B1F452B20E
:100EBE00120BA66402700A900001120BBF42B142DF
:100ECE00B2120BA66403700D900001120BBFFEF45C
:100EDE0052B1EE42B2EF64047046120BA6FE700BD6
:100EEE00900001120BBFF452B352B4EE6401700BBA
:100EFE00900001120BBF42B3F452B4120BA664025F
:100F0E00700A900001120BBF42B342B4120BA664DA
:100F1E0003700D900001120BBFFEF452B3EE42B4FB
:100F2E00EF64057046120BA6FE700B900001120BBB
:100F3E00BFF452C952CAEE6401700B900001120B3D
:100F4E00BF42C9F452CA120BA66402700A90000185
:100F5E00120BBF42C942CA120BA66403700D900059
:100F6E0001120BBFFEF452C9EE42CAEF6406704680
:100F7E00120BA6FE700B900001120BBFF452CB5257
:100F8E00CCEE6401700B900001120BBF42CBF452F9
:100F9E00CC120BA66402700A900001120BBF42CB5A
:100FAE0042CC120BA66403700D900001120BBFFE13
:100FBE00F452CBEE42CCEF64077049120BA6FF7EC3
:100FCE0000700B900001120BBFF452E152E2EF647D
:100FDE00014E700B900001120BBF42E1F452E2126F
:100FEE000BA66402700A900001120BBF42E142E2AE
:100FFE00120BA66403700D900001120BBFFFF4528A
:07100E00E1EF42E27F002246
:1012C400021204E493A3F8E493A34003F68001F22A
:1012D40008DFF48029E493A3F85407240CC8C3332B
:1012E400C4540F4420C8834004F456800146F6DFFA
:1012F400E4800B0102040810204080900006E47E84
:10130400019360BCA3FF543F30E509541FFEE493EE
:10131400A360010ECF54C025E060A840B8E493A3B5
:10132400FAE493A3F8E493A3C8C582C8CAC583CAE0
:10133400F0A3C8C582C8CAC583CADFE9DEE780BE98
:01000A0000F5
:100AB000E709F608DFFA8046E709F208DFFA803E28
:100AC00088828C83E709F0A3DFFA8032E309F60815
:100AD000DFFA8078E309F208DFFA807088828C837D
:100AE000E309F0A3DFFA806489828A83E0A3F60831
:100AF000DFFA805889828A83E0A3F208DFFA804C0B
:100B000080D280FA80C680D4806980F280338010E1
:100B100080A680EA809A80A880DA80E280CA80334A
:100B200089828A83ECFAE493A3C8C582C8CCC583C2
:100B3000CCF0A3C8C582C8CCC583CCDFE9DEE78092
:100B40000D89828A83E493A3F608DFF9ECFAA9F011
:100B5000EDFB2289828A83ECFAE0A3C8C582C8CC67
:100B6000C583CCF0A3C8C582C8CCC583CCDFEADE80
:100B7000E880DB89828A83E493A3F208DFF980CCE2
:100B800088F0EF60010E4E60C388F0ED2402B404DB
:100B90000050B9F582EB2402B4040050AF23234582
:060BA0008223900B00739C
:100BA600BB010689828A83E0225002E722BBFE024D
:090BB600E32289828A83E4932280
:100BBF00BB010CE58229F582E5833AF583E02250EB
:100BCF0006E92582F8E622BBFE06E92582F8E22235
:0D0BDF00E58229F582E5833AF583E493224F
:100BEC00F8BB010DE58229F582E5833AF583E8F03F
:100BFC00225006E92582C8F622BBFE05E92582C8EB
:020C0C00F222D2
:100C0E00BB0110E58229F582E5833AF583E0F5F024
:100C1E00A3E0225009E92582F886F008E622BBFE01
:100C2E000AE92582F8E2F5F008E222E5832AF58347
:080C3E00E993F5F0A3E993220C
:100C460075F008758200EF2FFFEE33FECD33CDCC65
:100C560033CCC58233C5829BED9AEC99E5829840E8
:100C66000CF582EE9BFEED9AFDEC99FC0FD5F0D6C5
:100C7600E4CEFBE4CDFAE4CCF9A88222B800C1B9EF
:100C86000059BA002DEC8BF084CFCECDFCE5F0CB2D
:100C9600F97818EF2FFFEE33FEED33FDEC33FCEB66
:100CA60033FB10D703994004EB99FB0FD8E5E4F921
:100CB600FA227818EF2FFFEE33FEED33FDEC33FC0E
:100CC600C933C910D7059BE99A4007EC9BFCE99A02
:100CD600F90FD8E0E4C9FAE4CCFB2275F010EF2F47
:100CE600FFEE33FEED33FDCC33CCC833C810D70747
:100CF6009BEC9AE899400AED9BFDEC9AFCE899F882
:0E0D06000FD5F0DAE4CDFBE4CCFAE4C8F92214
:100D1400EB9FF5F0EA9E42F0E99D42F0E89C45F035
:010D240022AC
:100D2500E8600FECC313FCED13FDEE13FEEF13FFAC
:030D3500D8F122D0
:100D3800BB010DE58229F582E5833AF583020D753D
:100D48005007E92582F8020D68BBFE07E92582F8FD
:100D5800020D81E58229F582E5833AF583020D8E3D
:10175F00AC58AD59AE5AAF5B7810EC4D4E4F70048C
:10176F007CA57DA5C3EC13FCED13FDEE13FEEF136B
:10177F00FF5010EC64CCFCED644CFDEE644EFEEFBC
:10178F0064CEFFD8DF8C588D598E5A8F5BEE547F05
:0D179F00FE228E588F5974A5F55AF55B2275
:0D0D6800E6FB08E6F908E6FA08E6CBF822FB
:0C0D7500E0F8A3E0F9A3E0FAA3E0FB2201
:0D0D8100E2FB08E2F908E2FA08E2CBF822F2
:100D8E00E493F8740193F9740293FA740393FB22BB
:00000001FF
